:100000000C9474000C949C000C949C000C949C0028
:100010000C949C000C949C000C949C000C949C00F0
:100020000C949C000C949C000C949C000C949C00E0
:100030000C949C000C949C000C949C000C949C00D0
:100040000C94B3020C949C000C9423030C94FD02BA
:100050000C949C000C949C000C949C000C949C00B0
:100060000C9455030C949C00084AD73B3BCE016E80
:1000700084BCBFFDC12F3D6C74319ABD56833DDAFF
:100080003D00C77F11BED9E4BB4C3E916BAAAABE0E
:10009000000000803F000000000800020100000393
:1000A0000407000000000000000000000000250020
:1000B00028002B0000000000240027002A00040470
:1000C0000404040404040202020202020303030300
:1000D00003030102040810204080010204081020DC
:1000E000010204081020260F11241FBECFEFD8E014
:1000F000DEBFCDBF11E0A0E0B1E0E4E7F5E202C071
:1001000005900D92A03EB107D9F723E0A0EEB1E033
:1001100001C01D92AE3BB207E1F710E0C4E7D0E0AA
:1001200004C02197FE010E94AD12C337D107C9F761
:100130000E94280B0C94B8120C94000008950895A6
:10014000CF92DF92EF92FF920F931F93CF93DF93A3
:100150006C017A018B01C0E0D0E0CE15DF0581F0A3
:10016000D8016D918D01D601ED91FC910190F08146
:10017000E02DC6010995892B11F02196EECF7E0165
:10018000C701DF91CF911F910F91FF90EF90DF900A
:10019000CF900895FC01538D448D252F30E0842F9E
:1001A00090E0821B930B541710F0CF96089501979F
:1001B0000895FC01918D828D981761F0828DDF0189
:1001C000A80FB11D5D968C91928D9F5F9F73928F4A
:1001D00090E008958FEF9FEF0895FC01918D828D3F
:1001E000981731F0828DE80FF11D858D90E008950C
:1001F0008FEF9FEF0895FC01918D228D892F90E064
:10020000805C9F4F821B91098F739927089589EA1B
:1002100092E00E94FB0021E0892B09F420E0822F6C
:100220000895FC01848DDF01A80FB11DA35ABF4FB3
:100230002C91848D90E001968F739927848FA689E5
:10024000B7892C93A089B1898C91837080648C9339
:10025000938D848D981306C00288F389E02D8081E8
:100260008F7D80830895EF92FF920F931F93CF931A
:10027000DF93EC0181E0888F9B8D8C8D981305C0F6
:10028000E889F989808185FD26C0F62E0B8D10E066
:100290000F5F1F4F0F731127E02E8C8DE8120CC0DB
:1002A0000FB607FCFACFE889F989808185FFF5CF81
:1002B000CE010E941101F1CF8B8DFE01E80FF11DDF
:1002C000E35AFF4FF0829FB7F8940B8FEA89FB89BE
:1002D000808180620AC09FB7F894EE89FF896083AD
:1002E000E889F98980818370806480839FBF81E081
:1002F00090E0DF91CF911F910F91FF90EF900895C3
:10030000CF93DF93EC01888D8823C9F0EA89FB89BC
:10031000808185FD05C0A889B9898C9186FD0FC0B3
:100320000FB607FCF5CF808185FFF2CFA889B98988
:100330008C9185FFEDCFCE010E941101E7CFDF91B7
:10034000CF91089580E090E0892B29F00E94070169
:1003500081110C940000089585ED8093BC0080917C
:10036000BC0084FDFCCF1092A802089540912002A9
:10037000262F30E0240F311D21323105DCF420918D
:10038000A8022430C9F4FC0180E090E0861758F4FC
:10039000309120022191DC01A050BE4FA30FB11D6E
:1003A0002C930196F3CF80912002680F6093200276
:1003B00080E0089581E0089582E008950895E09135
:1003C0005D0280915C02E81730F4F0E0EE59FD4FD9
:1003D000808190E008958FEF9FEF089590915D02E6
:1003E00080915C02981750F4E92FF0E0EE59FD4F30
:1003F000208130E09F5F90935D0202C02FEF3FEFBE
:10040000C901089580915C0290E020915D02821BF9
:1004100091090895CF92DF92EF92FF920F931F936D
:10042000CF93DF937C01CB018A01209161022223CB
:1004300089F0EB016B01C40ED51ECC15DD0569F00A
:100440006991D701ED91FC910190F081E02DC701F8
:100450000995F3CF642F0E94B601C801DF91CF91B7
:100460001F910F91FF90EF90DF90CF900895CF9361
:10047000DF931F92CDB7DEB76983209161022223FB
:10048000D1F020915E02203240F021E030E0FC010A
:100490003383228380E090E015C080915F02E82FD3
:1004A000F0E0E052FE4F998190838F5F80935F026E
:1004B00080935E0205C061E0CE0101960E94B60104
:1004C00081E090E00F90DF91CF910895089580E052
:1004D00090E0089560E088E00E94430A60E08DE0CB
:1004E0000E94430A60E08CE00E94430A60E089E0D9
:1004F0000E94430A64E670E08AE00E94900A60E786
:1005000070E08BE00E94900A61E088E00E94430A5C
:1005100061E08DE00C94430A0E94B3123FB7F89457
:100520008091540290915502A0915602B0915702C9
:1005300026B5A89B05C02F3F19F00196A11DB11D3E
:100540003FBFBA2FA92F982F8827820F911DA11D79
:10055000B11DBC01CD0142E0660F771F881F991FB6
:100560004A95D1F708951F920F920FB60F9211245A
:100570002F933F938F939F93AF93BF938091580294
:1005800090915902A0915A02B0915B0230915302AE
:1005900023E0230F2D3720F40196A11DB11D05C0C6
:1005A00026E8230F0296A11DB11D209353028093CC
:1005B000580290935902A0935A02B0935B02809123
:1005C000540290915502A0915602B09157020196A3
:1005D000A11DB11D8093540290935502A093560221
:1005E000B0935702BF91AF919F918F913F912F91FF
:1005F0000F900FBE0F901F9018951F920F920FB67D
:100600000F9211242F933F934F935F936F937F9398
:100610008F939F93AF93BF93EF93FF9389EA92E0F9
:100620000E941101FF91EF91BF91AF919F918F9126
:100630007F916F915F914F913F912F910F900FBEDE
:100640000F901F9018951F920F920FB60F921124C2
:100650002F938F939F93EF93FF93E091B902F091C3
:10066000BA028081E091BF02F091C00282FD12C007
:1006700090818091C2028F5F8F732091C302821795
:1006800051F0E091C202F0E0E755FD4F958F809365
:10069000C20201C08081FF91EF919F918F912F91B4
:1006A0000F900FBE0F901F9018951F920F920FB6CC
:1006B0000F9211242F933F934F935F936F937F93E8
:1006C0008F939F93AF93BF93EF93FF938091B90064
:1006D000887F803609F49CC068F5883209F45BC0D5
:1006E00090F4803109F454C038F4882309F4F6C03A
:1006F000883009F44DC0F6C0883109F44CC080320E
:1007000009F45DC0EFC0803409F468C048F4803358
:1007100009F455C0883309F0E5C08093A602D8C01B
:10072000803509F44FC0883509F45DC0883409F07C
:10073000D9C0D6C0883909F4C7C0A8F4883709F4ED
:1007400067C038F4883609F463C0803709F460C0A4
:10075000C9C0883809F4B8C0803909F45FC080384E
:1007600009F0C0C05BC0803B09F486C038F4803A11
:1007700009F466C0883A09F47FC0B4C0803C09F42B
:10078000A7C0883C09F4A4C0883B09F48AC0AAC069
:100790008091A30210C09091A5028091A4029817A5
:1007A00070F5E091A50281E08E0F8093A502F0E044
:1007B000EE57FD4F80818093BB0085EC86C080930F
:1007C000A6028EC0E091A50281E08E0F8093A50263
:1007D0008091BB00F0E0EE57FD4F80839091A50221
:1007E0008091A4026EC0E091A50281E08E0F8093FB
:1007F000A5028091BB00F0E0EE57FD4F8083809111
:10080000A70281116DC081E08093A20284EA61C0D9
:1008100083E08093A80210924202CFCF80914202DF
:10082000803208F051C0E091420281E08E0F809347
:1008300042028091BB00F0E0EE5DFD4F8083BDCFB2
:1008400085EC8093BC001092A80280914202803215
:1008500030F4E0914202F0E0EE5DFD4F10826091D5
:10086000420270E0E0914302F091440282E292E0A1
:1008700009951092420236C084E08093A80210923B
:10088000210210922002E0914502F0914602099562
:1008900080912002811105C081E080932002109296
:1008A0000002E091210281E08E0F80932102F0E0AE
:1008B000E050FE4F80818093BB0090912102809197
:1008C0002002981708F479CF85E88093BC000AC00D
:1008D00085EC8093BC001092A80204C01092A6027E
:1008E0000E94AC01FF91EF91BF91AF919F918F91C9
:1008F0007F916F915F914F913F912F910F900FBE1C
:100900000F901F90189530915E02313208F04AC066
:100910008091A8028111FCCF9091600222E0209387
:10092000A8026093A7022FEF2093A6021092A502BF
:100930003093A402E0EEF1E0A2E8B2E020E032174A
:1009400021F041914D932F5FFACF1092A302209195
:10095000A302990F922B9093A3029091A20291303F
:1009600061F41092A2029091A3029093BB00909127
:10097000BC0093FDF8CF95EC01C095EE9093BC00C0
:100980009091A8029230E1F39091A6029F3F79F0F6
:100990008091A602803241F08091A602803331F02E
:1009A00084E005C081E003C082E001C083E01092D2
:1009B0005F0210925E02109261020895009769F042
:1009C000FC0101900020E9F73197AF01481B590B5A
:1009D000BC0189EA92E00C94A00080E090E00895C8
:1009E00090E0FC01EE52FF4F2491FC01E254FF4FD6
:1009F0008491882399F090E0880F991FFC01EC54B2
:100A0000FF4FA591B491FC01E655FF4F859194915C
:100A10008FB7F894EC91E22BEC938FBF08950C9470
:100A2000DE0480ED91E00C94DE04CF93DF930E940E
:100A3000DE04EC010E9411058C0F9D1FDF91CF9108
:100A400008958F929F92AF92BF920F931F93CF936F
:100A5000DF93CDB7DEB7A1970FB6F894DEBF0FBE18
:100A6000CDBF19A2423008F44AE08E010F5D1F4F3E
:100A7000842E912CA12CB12CA50194010E947712F7
:100A8000E62FB901CA0101501109EA3014F4E05D02
:100A900001C0E95CD801EC93232B242B252B61F7B3
:100AA000C8010E94DE04A1960FB6F894DEBF0FBE07
:100AB000CDBFDF91CF911F910F91BF90AF909F90CD
:100AC0008F9008954F925F926F927F928F929F9234
:100AD000AF92BF92CF92DF92EF92FF926B017C01B7
:100AE0009B01AC010E945E12882319F083ED91E016
:100AF0001AC046015701E894B7F82FEF3FEF4FE7D0
:100B00005FE7C501B4010E945E12811110C02FEF92
:100B10003FEF4FE75FE7C501B4010E945A10181676
:100B200034F487ED91E00E94DE047C0183C02FEF56
:100B30003FEF4FE75FE4C701B6010E94E0111816CE
:100B40001CF48BED91E0EFCF2FEF3FEF4FE75FEC21
:100B5000C701B6010E945A1087FDF3CF20E030E0B4
:100B6000A901C701B6010E945A1087FF0BC06DE2B0
:100B700089EA92E00E9433015C01F7FAF094F7F8F9
:100B8000F09402C0A12CB12C2AE037ED43EA5BE3DC
:100B9000C701B6010E947C0F2B013C010E94D810B6
:100BA0006B017C010E9407119B01AC01C301B201E2
:100BB0000E947B0F2B013C014AE0C701B6010E9455
:100BC00021057C01EA0CFB1C6EE289EA92E00E949E
:100BD0003301E80EF91E20E030E040E251E4C301A9
:100BE000B2010E94ED112B013C010E94D8104B0173
:100BF000A12CB12C4AE0C501B4010E942105E80EE8
:100C0000F91EC501B4010E9407119B01AC01C3018B
:100C1000B2010E947B0F20E030E040E251E40E94EC
:100C2000ED110E94D81080E090E04AE00E9421057A
:100C3000E80EF91E0E9411058E0D9F1DFF90EF908A
:100C4000DF90CF90BF90AF909F908F907F906F90EC
:100C50005F904F9008959091A8029111FCCF91E080
:100C60009093A8029093A7022FEF2093A6021092D0
:100C7000A502260F2093A4029093A3029091A302B1
:100C8000880F892B8093A3028091A202813061F4A6
:100C90001092A2028091A3028093BB008091BC00BD
:100CA00083FDF8CF85EC01C085EE8093BC00809178
:100CB000A8028130E1F38091A502861710F46091BB
:100CC000A502A2E8B2E0E2E6F2E080E0861721F0B9
:100CD0009D9191938F5FFACF08952F923F924F92FB
:100CE0005F926F927F928F929F92AF92BF92CF92BC
:100CF000DF92EF92FF92CF93DF93CDB7DEB72897C5
:100D00000FB6F894DEBF0FBECDBF81E080936102C5
:100D100088E68093600210925F0210925E028091DA
:100D2000520390915303DC01ED91FC910190F0810D
:100D3000E02D6BE3099560E080915203909153039D
:100D40000E9483046EE088E60E942B0610925D02EA
:100D500080935C028091520390915303DC01ED91EA
:100D6000FC910284F385E02D0995F82E80915203C1
:100D700090915303DC01ED91FC910284F385E02D09
:100D8000099520E030E03F2D822B932B9093550363
:100D9000809354038091520390915303DC01ED91B1
:100DA000FC910284F385E02D0995F82E8091520381
:100DB00090915303DC01ED91FC910284F385E02DC9
:100DC000099520E030E03F2D822B932B9093570321
:100DD000809356038091520390915303DC01ED916F
:100DE000FC910284F385E02D0995F82E8091520341
:100DF00090915303DC01ED91FC910284F385E02D89
:100E0000099520E030E03F2D822B932B90935903DE
:100E1000809358038091520390915303DC01ED912C
:100E2000FC910284F385E02D0995F82E8091520300
:100E300090915303DC01ED91FC910284F385E02D48
:100E4000099520E030E03F2D822B932B90935B039C
:100E500080935A038091520390915303DC01ED91EA
:100E6000FC910284F385E02D0995F82E80915203C0
:100E700090915303DC01ED91FC910284F385E02D08
:100E8000099520E030E03F2D822B932B90935D035A
:100E900080935C038091520390915303DC01ED91A8
:100EA000FC910284F385E02D0995F82E8091520380
:100EB00090915303DC01ED91FC910284F385E02DC8
:100EC000099520E030E03F2D822B932B90935F0318
:100ED00080935E038091520390915303DC01ED9166
:100EE000FC910284F385E02D0995F82E8091520340
:100EF00090915303DC01ED91FC910284F385E02D88
:100F0000099560E070E07F2D3B01682A792A709294
:100F100061036092600360915A0370915B03072E36
:100F2000000C880B990B0E94091120E030EF41E47E
:100F300056E40E947C0F20E030E04AEA53E40E942D
:100F40005F1060936E0370936F03809370039093B0
:100F500071036091540370915503072E000C880BA8
:100F6000990B0E94091120E030E040E858E30E940C
:100F7000ED114B015C0160937203709373038093D6
:100F80007403909375036091560370915703072E75
:100F9000000C880B990B0E94091120E030E040E81A
:100FA00058E30E94ED116B017C016093760370930E
:100FB000770380937803909379036091580370913D
:100FC0005903072E000C880B990B0E94091120E091
:100FD00030E040E858E30E94ED111B012C016093C2
:100FE0007A0370937B0380937C0390937D0320E0CE
:100FF00030E0A901C501B4010E94E011A5019401EE
:1010000018160CF05058C201B1010E947C0F9B01D0
:10101000AC01C701B6010E94FB0F20E030E044EBB9
:1010200053E40E94ED1120E030E040E05FE30E94D5
:10103000ED112BED3FE049E450E40E945F10609316
:10104000960370939703809398039093990320E0FD
:1010500030E0A901C701B6010E94E011181624F082
:10106000F7FAF094F7F8F094A7019601C201B101E4
:101070000E947C0F9B01AC01C501B4010E94FB0FD3
:1010800020E030E044EB53E40E94ED1120E030E03A
:1010900040E05FEB0E94ED112BED3FE049E450E4AE
:1010A0000E945F1060939A0370939B0380939C034C
:1010B00090939D0360915E0370915F03072E000C77
:1010C000880B990B0E94091120E030E043E852E4BC
:1010D0000E945F106B017C0160915C0370915D0365
:1010E000072E000C880B990B0E94091120E030E0BC
:1010F00043E852E40E945F10209162033091630341
:1011000040916403509165030E947B0F60937E03BE
:1011100070937F03809380039093810320916603F3
:10112000309167034091680350916903C701B6018C
:101130000E947B0F609382037093830380938403E8
:1011400090938503B301770C880B990B0E940911CA
:1011500020E030E043E852E40E945F1020916A03EF
:1011600030916B0340916C0350916D030E947B0F93
:101170006093860370938703809388039093890319
:101180002FB7F8948091580290915902A0915A0279
:10119000B0915B022FBFC090B203D090B303E09038
:1011A000B403F090B503BC01CD016C197D098E0923
:1011B0009F090E9407112FE632E143E85AE30E949B
:1011C000ED116B017C016093AE037093AF038093CC
:1011D000B0039093B10320917E0330917F0340913F
:1011E0008003509181030E94ED112B013C019B0172
:1011F000AC0160918A0370918B0380918C03909174
:101200008D030E947C0F60938A0370938B038093FD
:101210008C0390938D03209182033091830340913E
:10122000840350918503C701B6010E94ED114B0163
:101230005C019B01AC0160918E0370918F038091E2
:101240009003909191030E947C0F60938E037093A2
:101250008F038093900390939103209186033091A4
:1012600087034091880350918903C701B6010E940A
:10127000ED1120919203309193034091940350918A
:1012800095030E947C0F6D837E838F839887609384
:101290009203709393038093940390939503C0906B
:1012A000BA03D090BB03E090BC03F090BD038091E3
:1012B000B6039091B703A091B803B091B9038983A5
:1012C0009A83AB83BC832091A2033091A303409106
:1012D000A4035091A503C301B2010E947C0FA70192
:1012E00096010E94ED112B013C0120919603309153
:1012F0009703409198035091990369817A818B817A
:101300009C810E94ED119B01AC01C301B2010E94BE
:101310007C0F6093A2037093A3038093A403909324
:10132000A5032091A6033091A7034091A8035091F3
:10133000A903C501B4010E947C0FA70196010E9478
:10134000ED116B017C0120919A0330919B03409138
:101350009C0350919D0369817A818B819C810E94BD
:10136000ED119B01AC01C701B6010E947C0F609397
:10137000A6037093A7038093A8039093A9038D817C
:101380009E81AF81B8858093AA039093AB03A0930D
:10139000AC03B093AD032FB7F894809158029091AD
:1013A0005902A0915A02B0915B022FBF8093B20301
:1013B0009093B303A093B403B093B50328960FB6EC
:1013C000F894DEBF0FBECDBFDF91CF91FF90EF90BD
:1013D000DF90CF90BF90AF909F908F907F906F9055
:1013E0005F904F903F902F9008951F93CF93DF937E
:1013F000162F91E09093610298E69093600210920C
:101400005F0210925E02C2E5D3E0A881B981ED913E
:10141000FC9111970190F081E02D682FCD01099585
:1014200088819981DC01ED91FC910190F081E02DA2
:10143000612F099561E088819981DF91CF911F919A
:101440000C948304CF92DF92EF92FF92CF93DF93BD
:101450006B017C016DE289EA92E00E943301EC01AC
:1014600066277727CB016C197D098E099F094AE011
:101470000E9421058C0F9D1FDF91CF91FF90EF906F
:10148000DF90CF90089590E0FC01EA56FF4F249141
:10149000FC01EE52FF4F3491FC01E254FF4FE49106
:1014A000EE2309F43CC0222339F1233091F038F4C3
:1014B0002130A9F0223001F584B58F7D12C027308C
:1014C00091F02830A1F02430B9F4809180008F7D14
:1014D00003C0809180008F77809380000DC084B519
:1014E0008F7784BD09C08091B0008F7703C0809151
:1014F000B0008F7D8093B000F0E0EE0FFF1FE65547
:10150000FF4FA591B4919FB7F894611104C08C91DD
:101510003095382302C0EC913E2B3C939FBF089539
:101520001F93CF93DF93182FEB010E94F0042097B5
:1015300011F460E004C0CF3FD10539F461E0812FA0
:10154000DF91CF911F910C94430AE12FF0E0EA560E
:10155000FF4FE491E330F9F048F4E130B9F0E230C4
:10156000A1F584B5806284BDC8BD34C0E730E9F020
:10157000E83019F1E43049F5809180008062809371
:101580008000D0938B00C0938A0024C084B580680B
:1015900084BDC7BD1FC0809180008068809380009B
:1015A000D0938900C093880015C08091B0008068F6
:1015B0008093B000C093B3000DC08091B0008062F2
:1015C0008093B000C093B40005C0C038D1050CF0C2
:1015D000B5CFAFCFDF91CF911F9108958F929F929A
:1015E000AF92BF92CF92DF92EF92FF926B017C019C
:1015F0000E948E024B015C01C114D104E104F1048C
:10160000F1F00E948E02DC01CB0188199909AA0928
:10161000BB09883E9340A105B10570F321E0C21AD1
:10162000D108E108F10888EE880E83E0981EA11C1D
:10163000B11CC114D104E104F10419F7DDCFFF900E
:10164000EF90DF90CF90BF90AF909F908F900895D4
:10165000CF93DF93CDB7DEB72B970FB6F894DEBFED
:101660000FBECDBF789484B5826084BD84B581609F
:1016700084BD85B5826085BD85B5816085BD80915D
:101680006E00816080936E001092810080918100D5
:1016900082608093810080918100816080938100CD
:1016A000809180008160809380008091B10084608F
:1016B0008093B1008091B00081608093B0008091F0
:1016C0007A00846080937A0080917A0082608093AF
:1016D0007A0080917A00816080937A0080917A000C
:1016E000806880937A001092C100E091B902F09175
:1016F000BA0282E08083E091B502F091B6021082D6
:10170000E091B702F091B8028FEC80831092C10291
:10171000E091BD02F091BE0286E08083E091BB02C1
:10172000F091BC02808180618083E091BB02F091E6
:10173000BC02808188608083E091BB02F091BC0292
:10174000808180688083E091BB02F091BC0280813F
:101750008F7D808310925D0210925C0210925F0276
:1017600010925E021092A80281E08093A70210926C
:10177000A20261E082E10E94430A61E083E10E94EB
:10178000430A8091B9008E7F8093B9008091B9009F
:101790008D7F8093B90088E48093B80085E48093BE
:1017A000BC008EE990E090934602809345028FE959
:1017B00090E0909344028093430260E089E10E94AC
:1017C000F50960E08AE10E94F50968E08BE10E947A
:1017D000F50960E08CE10E94F50961E08BE60E946A
:1017E000F5090E946D0610928A0310928B031092E5
:1017F0008C0310928D0310928E0310928F0310921F
:101800009003109291038091960390919703A09179
:101810009803B09199038093A2039093A303A0939C
:10182000A403B093A50380919A0390919B03A09188
:101830009C03B0919D038093A6039093A703A0936C
:10184000A803B093A9032FB7F89480915802909100
:101850005902A0915A02B0915B022FBF8093B2034C
:101860009093B303A093B403B093B50368EE73E011
:1018700080E090E00E94EE0A0E94110588E291E06B
:101880000E94150581E591E00E9415058AE691E028
:101890000E940F05C12CD12C76014601570126016B
:1018A000370100E010E0C80168EE73E00E946312A7
:1018B000892B21F48EE791E00E940F0521E020930F
:1018C000610238E63093600210925F0210925E026D
:1018D0008091520390915303DC01ED91FC910190B2
:1018E000F081E02D63E4099560E0809152039091CE
:1018F00053030E94830466E088E60E942B06109240
:101900005D0280935C028091520390915303DC014D
:10191000ED91FC910284F385E02D09958F838091F0
:10192000520390915303DC01ED91FC910284F38505
:10193000E02D0995BF81BA83198229813A81282B2C
:10194000392B3B872A878091520390915303DC0106
:10195000ED91FC910284F385E02D0995382E80915C
:10196000520390915303DC01ED91FC910284F385C5
:10197000E02D09953C821B822B813C81282B392B41
:1019800038872F838091520390915303DC01ED91AE
:10199000FC910284F385E02D09958987809152039B
:1019A00090915303DC01ED91FC910284F385E02DCD
:1019B00009951C012A853B85B901330F880B990BCA
:1019C0000E94091120E030E043E852E40E945F10D9
:1019D0009B01AC01C301B2010E947C0F2B013C01B1
:1019E000AF81B885BD01BB0F880B990B0E9409110F
:1019F00020E030E043E852E40E945F109B01AC011C
:101A0000C501B4010E947C0F4B015C01B985BE8306
:101A10001D826D817E8162297329072E000C880B3F
:101A2000990B0E94091120E030E043E852E40E9443
:101A30005F109B01AC01C701B6010E947C0F6B01D6
:101A40007C010F5F1F4F083B2BE0120709F02BCFE3
:101A500020E030E84BE355E4C301B2010E945F107F
:101A600060936203709363038093640390936503B0
:101A700020E030E84BE355E4C501B4010E945F105B
:101A80006093660370936703809368039093690380
:101A900020E030E84BE355E4C701B6010E945F1037
:101AA00060936A0370936B0380936C0390936D0350
:101AB0000E94110580E891E00E94150586E891E0FA
:101AC0000E940F056091620370916303809164032B
:101AD000909165030E9462058BE891E00E940F05DA
:101AE0006091660370916703809168039091690328
:101AF0000E94620580E991E00E940F0560916A03EF
:101B000070916B0380916C0390916D030E9462054C
:101B100085E991E00E94150588E291E00E940F0599
:101B200068EB7BE080E090E00E94EE0A8DE00E948E
:101B3000F0048CE00E94F0048BE00E94F0048AE044
:101B40000E94F00489E00E94F00488E00E94F00402
:101B50000AE710E080E7E82EF12C2FB7F894809187
:101B6000580290915902A0915A02B0915B022FBF86
:101B700080934F0290935002A0935102B09352026F
:101B80000E946D068091020190910301019749F531
:101B900088EB91E00E940F056091AA037091AB035E
:101BA0008091AC039091AD0360934B0270934C0213
:101BB00080934D0290934E026093470270934802C7
:101BC0008093490290934A020E9462050E946A0231
:101BD00080910201909103010196909303018093FB
:101BE00002018091AA039091AB03A091AC03B09144
:101BF000AD0380934B0290934C02A0934D02B0939F
:101C00004E0283EC91E00E940F0560914B027091AF
:101C10004C0280914D0290914E020E94620586EC2A
:101C200091E00E940F0560914702709148028091F7
:101C3000490290914A020E9462058AEC91E00E945A
:101C40000F056091000170910101072E000C880BB7
:101C5000990B97FF03C00E94220A03C04AE00E942A
:101C600021050E94110560914F02709150028091F0
:101C700051029091520297FF03C00E94220A03C0B2
:101C80004AE00E9421050E941105209147023091EF
:101C900048024091490250914A0260914B02709172
:101CA0004C0280914D0290914E020E947B0F4B019D
:101CB0005C012DEC3CEC4CEC5DE30E94E01118164D
:101CC00054F02DEC3CEC4CEC5DE3C501B4010E94FA
:101CD0005A1087FF2AC06091000170910101072E00
:101CE000000C880B990B0E940911A50194010E9418
:101CF0007C0F0E94D1106B3771052CF47093010199
:101D00006093000104C010930101009300018091D1
:101D10000001909101018B3691055CF48BE690E017
:101D2000909301018093000104C0F0920101E092C0
:101D3000000160910001709101018BE00E94900A06
:101D40008091020190910301029709F07CC080917B
:101D50004F0290915002A0915102B09152028131F4
:101D60009742A105B1050CF46EC060E088E00E94C6
:101D7000430A60E08DE00E94430A64EF71E080E076
:101D800090E00E94EE0A60E088E00E94430A60E072
:101D90008DE00E94430A60E08CE00E94430A60E00C
:101DA00089E00E94430A60E08AE00E94430A64E6F8
:101DB00070E08BE00E94900A61E088E00E94430A94
:101DC00061E08DE00E94430A80904B0290904C02AB
:101DD000A0904D02B0904E0220E030E044EA52E480
:101DE000C501B4010E947C0F20E030E0A9010E94EF
:101DF000E0111816ACF40E946D066091AA03709170
:101E0000AB038091AC039091AD0360934B02709350
:101E10004C0280934D0290934E020E946205D4CFF3
:101E200080910201909103010196909303018093A8
:101E300002018092470290924802A0924902B09219
:101E40004A020E946A020E94A20187CEE9EAF2E0F9
:101E50001382128288EE93E0A0E0B0E08483958341
:101E6000A683B78328E031E03183208325EC30E07E
:101E70003587248724EC30E03787268720EC30E054
:101E8000318B208B21EC30E0338B228B22EC30E045
:101E9000358B248B26EC30E0378B268B118E128EFF
:101EA000138E148EE6E4F3E013821282848395830A
:101EB000A683B7838AE191E091838083F0935303F3
:101EC000E09352038AE097EDA3EABCE38093B60364
:101ED0009093B703A093B803B093B90388E491EE4D
:101EE000AAE7BFE38093BA039093BB03A093BC031C
:101EF000B093BD0308955058BB27AA270E94930FA3
:101F00000C94A6110E94981138F00E949F1120F0A5
:101F100039F49F3F19F426F40C946E110EF4E095F9
:101F2000E7FB0C946811E92F0E94B71158F3BA1718
:101F3000620773078407950720F079F4A6F50C94DF
:101F4000D9110EF4E0950B2EBA2FA02D0B01B9017B
:101F500090010C01CA01A0011124FF27591B99F01F
:101F6000593F50F4503E68F11A16F040A22F232F2B
:101F7000342F4427585FF3CF469537952795A7957B
:101F8000F0405395C9F77EF41F16BA0B620B730B22
:101F9000840BBAF09150A1F0FF0FBB1F661F771F93
:101FA000881FC2F70EC0BA0F621F731F841F48F448
:101FB000879577956795B795F7959E3F08F0B0CFD1
:101FC0009395880F08F09927EE0F979587950895B8
:101FD0000E94981160F080E891E009F49EEF0E9461
:101FE0009F1128F040E851E071F45EEF0CC00C94B2
:101FF0006E110C94D911E92FE0780E94B71140F3CB
:10200000092E052AB1F3261737074807590738F074
:102010000E2E07F8E02569F0E025E0640AC0EF63C2
:1020200007F8009407FADB01B9019D01DC01CA0140
:10203000AD01EF930E9476100E94A6110E942B1012
:102040005F91552339F02BED3FE049E450FD49EC19
:102050000C947C0F0895DF93DD27B92FBF7740E8FC
:102060005FE31616170648075B0718F4D92F0E947E
:10207000E5119F938F937F936F930E945A12E8E626
:10208000F0E00E9471110E94A6112F913F914F9193
:102090005F910E940012DD2351F09058A2EA2AEDD0
:1020A0003FE049EC5FE3D0785D270E94930FDF911A
:1020B0000C94A6110E94441108F481E008950E9436
:1020C00073100C94A6110E949F1158F00E94981151
:1020D00040F029F45F3F29F00C94681151110C94E1
:1020E000DA110C946E110E94B71168F39923B1F3C1
:1020F000552391F3951B550BBB27AA27621773072E
:10210000840738F09F5F5F4F220F331F441FAA1FC1
:10211000A9F335D00E2E3AF0E0E832D0915050407D
:10212000E695001CCAF72BD0FE2F29D0660F771F2B
:10213000881FBB1F261737074807AB07B0E809F011
:10214000BB0B802DBF01FF2793585F4F3AF09E3F96
:10215000510578F00C9468110C94DA115F3FE4F3A8
:10216000983ED4F3869577956795B795F7959F5FD9
:10217000C9F7880F911D9695879597F90895E1E025
:10218000660F771F881FBB1F621773078407BA0784
:1021900020F0621B730B840BBA0BEE1F88F7E095DF
:1021A00008950E94D8106894B1110C94DA11089522
:1021B0000E94BF1188F09F5798F0B92F9927B75107
:1021C000B0F0E1F0660F771F881F991F1AF0BA95DB
:1021D000C9F714C0B13091F00E94D911B1E008954F
:1021E0000C94D911672F782F8827B85F39F0B93F41
:1021F000CCF3869577956795B395D9F73EF490958E
:102200008095709561957F4F8F4F9F4F0895E8940B
:1022100009C097FB3EF490958095709561957F4F2E
:102220008F4F9F4F9923A9F0F92F96E9BB279395DC
:10223000F695879577956795B795F111F8CFFAF4EC
:10224000BB0F11F460FF1BC06F5F7F4F8F4F9F4F1D
:1022500016C0882311F096E911C0772321F09EE87B
:10226000872F762F05C0662371F096E8862F70E0E1
:1022700060E02AF09A95660F771F881FDAF7880FBB
:102280009695879597F90895990F0008550FAA0B11
:10229000E0E8FEEF16161706E807F907C0F0121679
:1022A0001306E407F50798F0621B730B840B950B7C
:1022B00039F40A2661F0232B242B252B21F40895D1
:1022C0000A2609F4A140A6958FEF811D811D08956E
:1022D00097F99F6780E870E060E008959FEF80ECD9
:1022E0000895DF93CF931F930F93FF92EF92DF92A6
:1022F0007B018C01689406C0DA2EEF010E94001267
:10230000FE01E894A5912591359145915591A6F34B
:10231000EF010E94930FFE019701A801DA9469F77B
:10232000DF90EF90FF900F911F91CF91DF91089573
:1023300000240A94161617061806090608950024A4
:102340000A9412161306140605060895092E03941E
:10235000000C11F4882352F0BB0F40F4BF2B11F492
:1023600060FF04C06F5F7F4F8F4F9F4F089557FDF1
:102370009058440F551F59F05F3F71F04795880FF3
:1023800097FB991F61F09F3F79F08795089512168A
:1023900013061406551FF2CF4695F1DF08C0161636
:1023A00017061806991FF1CF8695710561050894E7
:1023B0000895E894BB2766277727CB0197F90895FE
:1023C0000E94441108F48FEF08959B01AC0160E076
:1023D00070E080E89FE30C945F100E9400120C9460
:1023E000A6110E94981138F00E949F1120F09523A9
:1023F00011F00C9468110C946E1111240C94DA11E4
:102400000E94B71170F3959FC1F3950F50E0551FCF
:10241000629FF001729FBB27F00DB11D639FAA2739
:10242000F00DB11DAA1F649F6627B00DA11D661F88
:10243000829F2227B00DA11D621F739FB00DA11DA9
:10244000621F839FA00D611D221F749F3327A00D63
:10245000611D231F849F600D211D822F762F6A2FFF
:1024600011249F5750409AF0F1F088234AF0EE0F64
:10247000FF1FBB1F661F771F881F91505040A9F791
:102480009E3F510580F00C9468110C94DA115F3F67
:10249000E4F3983ED4F3869577956795B795F795CD
:1024A000E7959F5FC1F7FE2B880F911D9695879545
:1024B00097F908959B01AC010C94ED110E94441111
:1024C000880B990B089597FB072E16F4009407D0FC
:1024D00077FD09D00E94991207FC05D03EF4909533
:1024E00081959F4F0895709561957F4F0895A1E262
:1024F0001A2EAA1BBB1BFD010DC0AA1FBB1FEE1F7E
:10250000FF1FA217B307E407F50720F0A21BB30BC8
:10251000E40BF50B661F771F881F991F1A9469F744
:1025200060957095809590959B01AC01BD01CF01A0
:102530000895AA1BBB1B51E107C0AA1FBB1FA6170A
:10254000B70710F0A61BB70B881F991F5A95A9F75C
:1025500080959095BC01CD010895EE0FFF1F059069
:10256000F491E02D099481E090E0F8940C94B81275
:04257000F894FFCF0D
:1025740070000100000000003301A000CA008001C7
:10258400FB00D900ED000000000037020A026702D8
:10259400DE010202EE01DF013D3D3D3D3D3D3D3D9D
:1025A4003D3D3D3D3D3D3D3D3D3D3D3D3D3D3D3D57
:1025B4003D3D3D3D3D3D3D3D3D3D3D3D3D3D3D3D47
:1025C4000043616C63756C6174696E67206779722E
:1025D4006F206F66667365747300444F204E4F54CA
:1025E400204D4F5645204D505536303530002E0085
:1025F400446F6E65210058203A200059203A20008B
:102604005A203A200050726F6772616D2077696CAE
:102614006C20737461727420616674657220332057
:102624007365636F6E6473004CE1BAA579207A30E8
:102634003A20007A3D007A303D0070776D323D00DB
:102644000D0A006E616E00696E66006F76660000AA
:00000001FF
